:020000040800F2
:10000000C8410020910100083D3100087D29000809
:1000100039310008F9070008D93A0008000000004B
:100020000000000000000000000000009133000804
:10003000A50100080000000071310008CD3400085F
:10004000AB010008AB010008AB010008AB010008E0
:10005000AB010008AB010008AB010008AB010008D0
:10006000AB010008AB010008AB010008AB010008C0
:10007000AB010008AB010008AB010008AB010008B0
:10008000AB010008AB010008AB010008AB010008A0
:10009000AB010008AB010008AB010008AB01000890
:1000A000AB010008AB010008AB010008AB01000880
:1000B000AB010008AB0100088D370008AB01000858
:1000C000AB010008AB010008AB010008AB01000860
:1000D000AB010008AB010008AB010008AB01000850
:1000E000AB010008AB010008AB01000800F002F80A
:1000F00000F03FF80AA090E8000C82448344AAF183
:100100000107DA4501D100F034F8AFF2090EBAE880
:100110000F0013F0010F18BFFB1A43F0010318473B
:1001200070B0000090B00000103A24BF78C878C1C9
:10013000FAD8520724BF30C830C144BF04680C60ED
:10014000704700000023002400250026103A28BF35
:1001500078C1FBD8520728BF30C148BF0B60704739
:10016000642900F04B80002070471FB51FBD10B5FB
:1001700010BD00F062FA1146FFF7F7FF03F0E8FC4C
:1001800000F080FA03B4FFF7F2FF03BC00F088FA36
:100190000948804709480047FEE7FEE7FEE7FEE71B
:1001A000FEE7FEE7FEE7FEE7FEE7FEE70448054957
:1001B000054A064B7047000079350008ED0000083D
:1001C000C83B0020C8410020C83D0020C83D002099
:1001D0000FB41CB5084B06AA7B44694600900598ED
:1001E00000F0E1F904460020694600F0EFF92046EE
:1001F0001CBC5DF814FB0000F10300002DE9F04188
:100200000646002410687529314616A510D0AFF3B4
:100210000080002802DA404213A507E031688A070F
:1002200001D512A502E0490704D511A5012401E07A
:10023000AFF3008000210A2206F1240709E0B0FB99
:10024000F2FCB0FBF2F302FB1C003030785418468D
:10025000491C0028F3D123462A463046BDE8F04128
:1002600000F043B9000000002D0000002B0000004A
:10027000200000002DE9F05F894604464FF0000A97
:10028000DFF874B1FB44C0F820A02046E16888473D
:10029000002874D0252806D0D4E901219047206A8F
:1002A000401C2062F1E700265F462046E16888474F
:1002B0002028054607DB312D05D2781910F8200CCF
:1002C00008B10643F1E7B00701D526F00406C4F8EB
:1002D0001CA00027C4F818A02A2D09D0284604F035
:1002E0009DFD38B304EB8708303DC8F8185019E07D
:1002F00059F8041B204604EB87029161E1688847A6
:10030000012F054618D1E069002820DA26F02006E2
:100310001DE0D8F8180000EB800005EB40003038F5
:10032000C8F818002046E1688847054604F076FDC5
:100330000028EED1012F0AD02E2D08D12046E168E9
:1003400088477F1C0546022F46F02006C4DBA069C3
:10035000002803DA404246F00106A061F00701D010
:1003600026F010066C2D0BD0682D09D04C2D39D0FD
:100370006A2D35D0742D35D07A2D33D016E038E083
:10038000E1682F4620468847B842054609D16C2FC0
:1003900026D04FF48060E168064320468847054632
:1003A00004E06C2F1AD04FF4807006430DB3A5F112
:1003B0004100192802D8203546F400664A462946ED
:1003C000204626604E46FFF7CBFE80B101280BD0B9
:1003D000F61D26F0070000F1080956E74020E4E783
:1003E0008020D8E70020D6E706F104094DE728462B
:1003F00052E7206ABDE8F09FA24B0000032A40F2BA
:10040000308010F0030C00F0158011F8013BBCF1B6
:10041000020F624498BF11F801CB00F8013B38BFCE
:1004200011F8013BA2F1040298BF00F801CB38BFDC
:1004300000F8013B11F0030300F0CD80083AC0F052
:10044000088051F8043B083A51F804CBA0E80810A2
:10045000F5E7121D5CBF51F8043B40F8043BAFF3D5
:100460000080D20724BF11F8013B11F801CB48BF2F
:1004700011F8012B24BF00F8013B00F801CB48BF65
:1004800000F8012B704702F0FF0343EA032242EA1F
:10049000024200F002B84FF0000200B51346944645
:1004A0009646203922BFA0E80C50A0E80C50B1F1CC
:1004B0002001BFF4F7AF090728BFA0E80C5048BFE0
:1004C0000CC05DF804EB890028BF40F8042B08BF7E
:1004D000704748BF20F8022B11F0804F18BF00F87A
:1004E000012B70477047704770472DE9F0470D4664
:1004F00099469246044600F124080168880604D50E
:10050000E06921F01001216000E00120A84201DD36
:10051000471B00E00027A1697A1902EB0900081ABD
:10052000A0612078C00602D42046AFF300800026E8
:1005300008E0D4E901211AF806009047206A401C1F
:10054000761C20624E45F4DB2078C0060AD5204692
:10055000AFF3008006E0D4E9012130209047206A03
:10056000401C2062381EA7F10107F4DC07E0D4E943
:10057000012118F805009047206A401C2062281EBF
:10058000A5F10105F3DC2046AFF3008020780006DA
:1005900002D50220BDE8F0870120FBE701694A1C73
:1005A00002610878704700B58FB0CDE901310021B4
:1005B000059105497944CDE9031011466846FFF7D6
:1005C00059FE0FB000BD0000E5FFFFFF0A6802F80A
:1005D000010B0A60704710B5203AC0F00B80B1E8FB
:1005E0001850A0E81850B1E81850A0E81850203A68
:1005F000BFF4F5AF5FEA027C24BFB1E81850A0E871
:10060000185044BF18C918C0BDE810405FEA827C8A
:1006100024BF51F8043B40F8043B08BF7047D207A1
:1006200028BF31F8023B48BF11F8012B28BF20F842
:10063000023B48BF00F8012B7047754600F02CF8CC
:10064000AE4605006946534620F00700854618B0BF
:1006500020B5FFF7ABFDBDE820404FF000064FF09E
:1006600000074FF000084FF0000BAC46ACE8C009A3
:10067000ACE8C009ACE8C009ACE8C00921F007014A
:100680008D46704710B50446AFF300802046BDE8A4
:100690001040FFF777BD00000048704710000020B1
:1006A00001491820ABBEFEE726000200704700009B
:1006B000B0B5044600688168C90709D0816821F097
:1006C0000101816000F0C4FD21688968C90701D17A
:1006D0000020B0BD054603E020688068C007F7D061
:1006E00000F0B6FD401B0328F6D320688068C007E1
:1006F000F2D0A06A40F01000A062E06A40F0010071
:10070000E0620120B0BD0000B0B582B00446002018
:10071000019021688A68D2073DD1886840F00100C5
:10072000886040F20000C2F2000000684DF683616C
:10073000C4F21B31A0FB0101880C00BF019001989D
:1007400010B101980138F9E700F082FD216889684D
:10075000C9071CD1054603E020688068C00719D18D
:1007600000F076FD401B0328F6D320688068C007A0
:10077000F2D1A06A40F01000A062E06A40F00100EF
:10078000E062002084F82400012002B0B0BD002007
:1007900002B0B0BD002002B0B0BD000080B540F294
:1007A000BC10C2F2000001F073FD80BDB0B504467C
:1007B00000F04EFD054600BF00F04AFD401BA04280
:1007C000FAD3B0BD40F2BC11C2F2000109684A6A16
:1007D0004B6A9B1A9BB28342FAD3704741F20004E2
:1007E000C4F2010420464FF4005100F023FD4FF401
:1007F0007A7003F041FEF5E7FEE7000080B540F6B1
:100800000040C4F201000121012200F01BFD80BD67
:1008100040F27402C2F20002106040F27000C2F2B4
:1008200000000180704700002DE9F041804600F093
:100830005FF800F019F8054600F016F8074600F0DA
:1008400013F8064600F010F8044600F00DF8791988
:1008500031442144814211BF002088F8015088F8BA
:1008600000600120BDE8F0812DE9F04140F27406FE
:1008700040F270070025C2F20006C2F200074FF0F6
:10088000000800F0E5FC04463068398800F0CCFC34
:1008900030B900F0DDFC001B0228F5D924E000BFD0
:1008A0003220FFF78FFF3068398800F0BDFC013837
:1008B000B0FA80F0400940EA450500F0C9FC044662
:1008C0003068398800F0B0FC012805D100F0C0FC88
:1008D000001B0228F4D907E0B8F1070F08F101085E
:1008E000CFD3E8B2BDE8F0810025E8B2BDE8F081E1
:1008F000F0B581B000F062F840F2740640F2700783
:10090000C2F20006C2F2000730683988012200F006
:1009100099FC30683988002200F094FC1420FFF71D
:1009200045FF30683988012200F08CFC1420FFF765
:1009300049FF00F02DF800F08BFC04463068398840
:1009400000F072FC054600F083FC012D054606D13F
:10095000281B0228F2D918E0601B022815D830683D
:10096000398800F061FC044600F072FC002C04465B
:10097000F2D000BF3068398800F056FC012804D15D
:1009800000F066FC001B0328F4D301B0F0BD0000AA
:1009900080B584B000200390CDE9010040F27000E2
:1009A000C2F20000018840F27400C2F20000006848
:1009B0000091694600F02AFB04B080BD80B584B088
:1009C000002040F27001C2F200010290112009885B
:1009D000019040F27400C2F2000000910068022110
:1009E0000391694600F012FB04B080BD40F28C0216
:1009F000C2F20002106040F28800C2F20000016002
:100A0000704700008CB002F03BF9FFF7F7FE02F0F0
:100A1000F5FD40F294074BF222194BF2141A4BF2F7
:100A2000301544F6546BC2F200070AAC0FF2880886
:100A300002AEC0F60009C0F6000AC0F60005C0F616
:100A4000000B00BF386821464FF0FF32002303F04F
:100A500053FE0028F6D00020002102F03BF99DF85B
:100A600028209DF8293030464146FFF7B1FB30463B
:100A700002F03CF90120002102F02CF9BDF82A1007
:100A80005046B1F5486F38BF4846B1F5966F38BF4C
:100A9000284602F02BF9002002F096FDBDF82C004C
:100AA0000928CFD81420012150229E23CDF800B070
:100AB00002F064FDC6E700BF543A25644320483A7B
:100AC0002564252520202000EFF3108072B600BF9A
:100AD000FEE7000070B581B00022009290F824205B
:100AE000012A01D1022177E04A680123062A80F811
:100AF000243005D803686FF0040C03F1340E0AE0CB
:100B000003680C2A87BF03F12C0E6FF0400C03F131
:100B1000300E6FF0220C02EB8202DEF800506244CD
:100B20001F230C68934025EA030304FA02F21A43D8
:100B3000CEF800200E68D0F800E006EB4605102441
:100B4000092E88BF1E3D88BF0C245EF804200723B1
:100B50008968AB409A43A94011434EF8041026F02F
:100B600001014FF0000C10294FF0000132D142F288
:100B70000041C4F201018E4505D0816A41F0200197
:100B80008162012126E08968090222D4DEF808107A
:100B9000102E41F40001CEF808101AD140F20001E5
:100BA000C2F2000109684DF68362C4F21B32A1FB58
:100BB0000212910C01EB810149000091009941B1B1
:100BC000009901390091009900294FF00001F7D1F7
:100BD00000E0002180F824C0084601B070BD00008C
:100BE0000068C06C70470000002804BF01207047F7
:100BF000F0B581B00746044657F8280F30B90020F9
:100C0000E06284F82400204600F07CF82046FFF7DC
:100C10004FFDA26AA16A002808BF12F0100205D099
:100C200041F010010120396001B0F0BD41F2021223
:100C300091430231A162E169D4E9013241EA03053D
:100C4000511EB1FA81F149091346B2F5807F18BFF0
:100C50000B02267D217B012E45EA410C13D141B1C7
:100C6000A16A41F02001A162E16A41F00101E16263
:100C700009E0A1694EF20006CFF6FF7606EB41319E
:100C8000194341F400632168B2F5807F4E6826F471
:100C9000694643EA06034B608B684FF2FD76CFF658
:100CA000E17603EA060343EA0C038B6001D0012AD4
:100CB00006D122690023CFF6F07303EB025200E065
:100CC0000022CB6A23F470031A43CA62896840F693
:100CD000FE62CFF61F721140614506D10021E1622C
:100CE000A16A012262F301019DE7A06A40F01000B1
:100CF00020F00200A06254F82C0F40F00101012006
:100D0000274690E780B586B0014640F60000C4F261
:100D10000100096800F5E05291424FF00001CDE971
:100D20000411CDE9021101D006B080BD41F21801D5
:100D3000C4F202010A6842F400720A600A6802F40E
:100D400000720192019A0A6842F004020A6009687E
:100D500001F0040101910199012102910321039104
:100D600002A900F053F906B080BD00002DE9F04162
:100D700082B000260D460446019600F069FA21680B
:100D80008A68D2053CD480464868C00503D4C86A46
:100D900010F4700F3ED040F20000C2F2000006686E
:100DA000022000F0A5FC216844F624130A69B6FB72
:100DB000F0F0C2F292431A4206D1CA6844F62413F4
:100DC000C0F292031A423ED00A6942F29243C1F243
:100DD00049231A4206D1CA6842F29243C0F249033B
:100DE0001A4242D00A6949F24923C0F224031A4246
:100DF0004FF0FC023AD1C968194208BF542235E0CD
:100E0000A06A40F02000A06284F82460012002B0B3
:100E1000BDE8F08120680068800743D46E1C07E0BD
:100E20002068006880075CD520680068800739D496
:100E3000002EF9D0002DF3D000F00AFAA0EB080044
:100E4000A842EDD8F0E70A6942F29243C1F2492381
:100E50001A424FF0290209D1C96842F29243C0F206
:100E60004903194208BF142200E05422019902FBF1
:100E700000F7B94216D26E1C09E000BF0198B842D3
:100E80002FD30198013001900198B8420AD2002E68
:100E9000F7D0002DF2D000F0DBF9A0EB0800A8425B
:100EA000ECD8EEE720686FF012010160A16A41F40E
:100EB0000071A162806800F46020B0F5602F0CD151
:100EC000207B50B9A06A20F48070A062A06AC004A0
:100ED00003D4A06A40F00100A062002002B0BDE887
:100EE000F081A06A40F00400A062002084F8240091
:100EF000032002B0BDE8F08110B5044690F824004C
:100F0000012804BF022010BD012084F824002046DF
:100F1000FFF7FAFB18B1002184F8241010BD42F24B
:100F2000044C2168A26AC4F2010C40F201339A43D6
:100F30000CF57F7E02F580727145A26207D0A26A2D
:100F400022F48012A2624A68520519D41DE0DCF82E
:100F5000002012F4702FF2D0A26A42F60003C4F20D
:100F6000010342F480129942A26205D042F200428B
:100F7000C4F20102914208D1DCF80020520504D5E8
:100F8000A26A012363F30D32A262A36A0022DB048A
:100F90004FF0000344BFE36A23F00603E36284F8E2
:100FA00024206FF002020A608A6802F46022B2F51F
:100FB000602F0BD1714504D08A6842F4A0028A6088
:100FC00010BDDCF8002012F4702FF5D08A6842F4CE
:100FD00080128A6010BD000010B5044690F824000D
:100FE000012804BF022010BD012084F824002046FF
:100FF000FFF75EFB28B9A16A41F20112914301316A
:10100000A162002184F8241010BD00002DE9F04FEA
:1010100084B00E680290002E00F0038140F20C4E66
:1010200040F2004741F200420298C4F2010EC4F2BD
:101030000107C4F201020423002401254FF0000A35
:101040004FF00009904208BF032300930AE000BF5D
:1010500001250E680AF1010A36FA0AF204F10404C5
:1010600000F0DF8005FA0AFB16EA0B08F1D04A68A7
:101070004FF6FF73C1F210039A4211DC122A54D8C2
:101080000298DFE802F0350A434753535353535352
:10109000535353535353534A4E00D1F80C9045E0E9
:1010A0004FF6FF73C1F221039A4210DC0023C1F214
:1010B000110302989A421BD00023C1F212039A42F4
:1010C00016D00023C1F221039A4211D02EE0002352
:1010D000C1F2220302989A420AD00023C1F23103DE
:1010E0009A4205D00023C1F232039A421ED100BFBA
:1010F0008A6842B1012A14BFC0F814B0C0F810B019
:101100004FF0080912E04FF004090FE0CA6802F13D
:1011100008090BE04FF0000908E0CA6802F1040971
:1011200004E0CA6802F10C0900E002982246034676
:10113000B8F5807F24BF203A04331D684FF00F0CB0
:101140000CFA02F6B54309FA02F22A431A60CA7988
:10115000D2067FF57DAF41F21803CDF80490C4F2BA
:1011600002031A68F34642F001021A601A684FEA55
:101170009A0E02F001020392039AA7F57E72B94615
:1011800052F82E3004F00C0740F600060CFA07F572
:10119000C4F20106B04223EA050C10D040F6004329
:1011A000C4F2010398420CD041F20003C4F20103DF
:1011B0009842009B4FF0010508BF022303E0002383
:1011C00000E001230125BB4043EA0C0342F82E3026
:1011D0004E684F46F202D9F8082054BF22EA0802AE
:1011E00042EA0802DE46DDF80490BA60DEF800202C
:1011F000B30254BF22EA080242EA0802CEF80020F5
:101200007A68B30354BF22EA080242EA08027A600D
:101210003A68F30354BF22EA080242EA08023A603D
:1012200017E704B0BDE8F08F8068084018BF0120C0
:1012300070470000C26802EA0103914341EA03419A
:1012400001617047002A08BF09040161704700006E
:1012500043F61C30C2F200000068704770B5B0B3AE
:10126000044690F83D0028B9002084F83C00204650
:1012700000F058F9242084F83D002068016821F02E
:1012800001010160016841F400410160016821F43D
:101290000041016000F00EFC48F28041C0F21E01E6
:1012A00040F60012666888424FF00001C0F23D022D
:1012B00048F2A16C4FF0000338BF01219042C0F208
:1012C000010C38BF0123664538BF0B460BB1012026
:1012D00070BD4DF68361C4F21B31A0FB0112216881
:1012E000930C4D68664525F03F0545EA92424A60F9
:1012F0000A6A22F03F0C09D34FF496725A4344F61F
:10130000D353C1F26203A2FB03239B095A1C42EA96
:101310000C020A6248F2A063CA69C0F201039E424D
:101320004CF6FF7322EA030C0AD801387200B0FBB6
:10133000F2F001306FF31F30042898BF04202BE037
:10134000A368A0F1010E9BB119207043BEFBF0F021
:101350000422013062F31F30000512D09BB1192026
:101360007043BEFBF0F00422013062F31F3011E045
:1013700006EB4600BEFBF0F001306FF31F300005B6
:10138000ECD1012008E006EB4600BEFBF0F0013096
:101390006FF31F3040F4004040EA0C00C861086859
:1013A000D4E9072320F0C000104318430860886880
:1013B00048F2FF3204F10C0690434CCE1843104320
:1013C000A5698860C86820F0FF0030432843C860E2
:1013D000086840F00100086000202021206484F8A3
:1013E0003D10206384F83E0070BD00002DE9F047F9
:1013F00082B01E46174689460446FFF729FF94F837
:101400003D1020290ED102210546C0F210012046D0
:1014100001221923009501F059FB18B994F83C00FA
:10142000012803D1022002B0BDE8F0870121206825
:1014300084F83C100168DDF82880C90703D10168F1
:1014400041F00101016001684FF0000A21F40061E0
:101450000160212084F83D00102084F83E00C4F88B
:1014600040A067626685608D494620850020CFF6E2
:10147000FF70E062204642462B4601F099FA18B10F
:10148000012002B0BDE8F087CDF804A020684169D2
:10149000019180690190019806E000BF2046414615
:1014A0002A4601F0DDFA20BB208D58B32046414684
:1014B0002A4601F0AFFBE0B9606A2168024612F8E3
:1014C000013B0B616262628D013A6285228D571E7B
:1014D00027854B693F0418BF13F00403DED043781F
:1014E00002300B616062608D01386085901E20853E
:1014F000D4E7206C0428C3D12068016841F400714E
:101500000160BDE72068016841F40071016020209E
:1015100084F83D00002084F83E0084F83C0002B0CE
:10152000BDE8F08710B586B0016845F20040C4F20E
:10153000000081424FF00001CDE90411CDE9021114
:1015400001D006B010BD41F21804C4F202042168B3
:1015500000F5384041F008012160216801F00801E0
:1015600001910199C021029112210391032105915A
:1015700002A9FFF74BFD606840F4001060606068EE
:1015800000F400100190019806B010BD40F2040074
:1015900043F61C31C2F20000C2F2000100780A6872
:1015A000104408607047000080B542F20000C4F2A9
:1015B0000200016841F010010160032000F094F87E
:1015C0000F2000F005F800F059F8002080BD000061
:1015D000B0B586B041F21C01C4F202010A680446AB
:1015E00042F004020A60096801A801F004010191B7
:1015F0000199694600F036FA049D002D18BF0125B7
:1016000000F058FA4DF68361A840C4F21B31A0FBEC
:1016100001014FF0FF3000EB914140F2042040F611
:101620000002C2F20000C4F2000240F2E7330025DB
:10163000C0E90021C0E902530561856100F0D0FDD9
:101640000546C0B940F20420C2F2000000F050FE8E
:10165000054680B91E2000F033F80F2C0AD81E2052
:101660002146002200F030F840F20800C2F20000EB
:10167000046000E00125284606B0B0BD82B041F20A
:101680001800C4F202000168022241F00101016069
:10169000016801F0010101910199416841F0805117
:1016A0004160406800F08050009000980420C4F22F
:1016B0000100016862F31A61016002B07047000026
:1016C00080B502F00BFA80BD70B514460D46064693
:1016D00002F014FA2946224601F032FD0146304656
:1016E00002F014FA70BD000080B502F021FA80BD4E
:1016F00080B5012818D0022841D010283DD141F2F0
:101700000401C4F202010A6851F8040CC00134D586
:10171000C2F383402EA3185CD2033FD440F60012DC
:10172000C0F23D02504345E041F20400C4F2020021
:10173000C16940F202320A40B2F5817F04BF4FF422
:10174000004080BD01F44071B1F5407F0DD0B1F58E
:10175000007F12D1026A920744BF49F6404080BD23
:10176000B1F5407F1CBF002080BD50F8040C4FF243
:101770002441800301EAE07080BD002080BD00F0BC
:10178000ABF941F20401C4F2020109680222C1F37B
:10179000813102EB4101B0FBF1F080BD0A6810A37A
:1017A000C2F340429A5C41F20023C0F27A03B3FBD9
:1017B000F2F250430968490248BF80BD4AF6AB21A6
:1017C0004000CAF6AA21A0FB0101480880BD00BF65
:1017D00002030405060708090A0B0C0D0E0F101072
:1017E000010200002DE9F04182B00446007841F288
:1017F0001C06C007C4F202064ED03068C0000BD4ED
:1018000030684FF0010840F080503060306800F0E0
:1018100080500190019801E04FF0000847F2000766
:10182000C4F200073868C00512D4386840F48070EC
:101830003860FFF70DFD05463868C00508D4FFF78E
:1018400007FD401B6428F7D9032002B0BDE8F081F2
:10185000706810F4407012D0616801F440718842E1
:101860000DD0706840F24042C4F24222012320F4BD
:10187000407113600023C0071360716029D1706844
:10188000616820F440700843B8F1000F706003D025
:10189000306820F0805030602068810707D556F806
:1018A000181CA26821F44041114346F8181CC006D8
:1018B00003D4002002B0BDE8F08156F8180CE168AE
:1018C00020F48000084346F8180C002002B0BDE860
:1018D000F081FFF7BDFC054641F28837706880074C
:1018E000CDD4FFF7B5FC401BB8424FF00300F5D94B
:1018F000ECE700002DE9F04381B0002800F087807C
:1019000042F20008C4F202080446D8F800000D466E
:1019100000F0070088420CD2D8F8000020F0070041
:101920002843C8F80000D8F8000000F00700A842DB
:101930006DD1206841F204098107C4F2020917D56C
:10194000410705D5D9F8001041F4E061C9F800104D
:10195000010705D5D9F8001041F46051C9F800100D
:10196000D9F80010A26821F0F0011143C9F8001065
:10197000C00745D1D8F8000000F00700A8420CD9F4
:10198000D8F8000020F007002843C8F80000D8F875
:10199000000000F00700A84239D12068410707D5B0
:1019A000D9F80010E26821F4E0611143C9F8001091
:1019B000000708D5D9F80000216920F4605040EAFA
:1019C000C100C9F8000000F099F8D9F8001044F6F9
:1019D0003B62C1F30311C0F60002515C40F2000209
:1019E00020FA01F140F20800C2F200000068C2F2E1
:1019F00000021160FFF7ECFD002001B0BDE8F083AC
:101A00006068012807D159F8041C89030CD401200F
:101A100001B0BDE8F08359F8041C022802D1890105
:101A2000F5D501E08907F2D5D9F8001021F00301BE
:101A30000843C9F80000FFF70BFC064641F288375F
:101A4000D9F80000616800F00C00B0EB810F91D074
:101A5000FFF7FEFB801BB842F2D9032001B0BDE8BE
:101A6000F08300000F22026041F20402C4F202027D
:101A7000136803F003034360136803F0F00383600B
:101A8000136803F4E063C36012684FF4E06303EA91
:101A9000D202026142F20000C4F20200006800F0CB
:101AA000070008607047000040F20000C2F200002A
:101AB0000068704780B5FFF7F7FF41F20401C4F2F8
:101AC0000201096844F64B62C1F30221C0F600022C
:101AD000515CC84080BD000080B5FFF7E5FF41F2D2
:101AE0000401C4F20201096844F64B62C1F3C22149
:101AF000C0F60002515CC84080BD000041F2040CF9
:101B0000C4F2020CDCF8003003F00C00082841F2AB
:101B10000020C0F27A0018BF7047C3F383420AA1C5
:101B20008A5CD90305D440F60010C0F23D00504352
:101B30007047DCF8001008A3C1F34041595C5043E2
:101B4000B0FBF1F0704700BF020304050607080967
:101B50000A0B0C0D0E0F1010010200002DE9F041D0
:101B600082B0002800F0C4800446007841F20006EC
:101B7000C007C4F2020643D0706800F00C000428CD
:101B800017D0706800F00C00082802D17068C003FC
:101B90000FD465689DB1B5F5803F06D03068B5F5C6
:101BA000A02F0DD140F480203060306840F48030A8
:101BB0000CE03068800323D5606808BB98E030688B
:101BC00020F480303060306820F480203060FFF7EF
:101BD0003FFB002D054610D03068800310D4FFF77E
:101BE00037FB401B6428F7D908E100BFFFF730FB43
:101BF000401B64284FF0030077D830688003F5D489
:101C00002078800718D5706810F00C0F07D0706826
:101C100000F00C00082826D17068C00323D4306877
:101C2000800702D52069012862D13068616920F0FF
:101C3000F80040EAC1003060207800073DD5A06977
:101C400038B30020C4F242200121C0F88014FFF70D
:101C5000FFFA0546706A80072DD4FFF7F9FA401B9A
:101C60000228F7D9CAE02069002840F20000C4F237
:101C7000422000F09A8001210160FFF7E9FA054651
:101C800030688007D1D4FFF7E3FA401B0228F7D968
:101C9000B4E00020C4F242200021C0F88014FFF715
:101CA000D7FA0546706A800707D5FFF7D1FA401BBF
:101CB0000228F7D9A2E001F0C3FA207840071BD42C
:101CC000E5698DB1706800F00C0008284CD1012D39
:101CD0000ED07068216A00F480328A4208D1616AAD
:101CE00000F47010884203D1002002B0BDE8F081FA
:101CF000012002B0BDE8F081F069C0000BD4F069AA
:101D00004FF0010840F08050F061F06900F0805021
:101D10000190019801E04FF0000847F20007C4F27B
:101D200000073868C00510D4386840F48070386007
:101D3000FFF78EFA054600BF3868C00505D4FFF7E7
:101D400087FA401B6428F7D958E0E568002D3DD09C
:101D5000012D05D0306A052D39D140F004003062E4
:101D6000306A40F0010038E00027C4F2422700202A
:101D70003866FFF76DFA022D05460BD130688001F9
:101D800054D5FFF765FA401B02284FF00300F5D940
:101D9000ABE700BF30688001A6D5FFF759FA401BBA
:101DA00002284FF00300F5D99FE700210160FFF7FB
:101DB0004FFA0546306880077FF53EAFFFF748FAD7
:101DC000401B02284FF00300F4D98EE7306A20F060
:101DD00001003062306A20F004003062FFF738FA08
:101DE000002D054641F2883714D000BF306A8007C5
:101DF00013D4FFF72DFA401BB842F7D9032002B0E5
:101E0000BDE8F081FFF724FA401BB8424FF0030011
:101E10003FF66BAF306A8007F4D4B8F1000F3FF49F
:101E20004FAFF06920F08050F06149E7206AB0F5CB
:101E3000803F05D17168A26821F4003111437160BF
:101E40007168626A21F474111043084370600120C4
:101E50003866FFF7FDF90446306880013FF544AF6E
:101E6000FFF7F6F9001B02284FF00300F4D93CE716
:101E700070B538B10446406A30B10020206104F1E9
:101E8000140007E0012070BD6068B0F5827F03D0C8
:101E900004F11C00002101600026A66294F85100A4
:101EA00020B9204684F8506000F038F8022084F809
:101EB000510094E8071001F48271036802F40442AF
:101EC00023F040030360236911440CF400621144C1
:101ED00003F002026369114403F00102A369E5699A
:101EE000114403F40072114405F03802256A1144CC
:101EF00005F08002A56A114305F400521143016008
:101F0000042101EA13414160C16921F40061C1610A
:101F10000120666584F85100304670BD80B586B0FA
:101F2000014640F60000C4F20100096800F52052A5
:101F300091424FF00001CDE90411CDE9021101D029
:101F400006B080BD41F21801C4F202010A6842F4F1
:101F500080520A600A6802F480520192019A0A686B
:101F600042F004020A60096801F00401019101993C
:101F7000A0210291022103910321059102A9FFF7FB
:101F800045F806B080BD00002DE9F04182B01D4645
:101F900016460F460446FFF75BF994F851100129E5
:101FA0000DD18046002F4FF0010018BF002E02D146
:101FB00002B0BDE8F08194F85000012803D102205E
:101FC00002B0BDE8F081012084F85000032084F8BD
:101FD0005100002060652763A686E686A063A0877F
:101FE000E087A168C4E91000B1F5004F08D120686E
:101FF000016821F040010160016841F48041016005
:1020000020680168490603D4016841F0400101607D
:102010006168731EE268B1FA81F1B3FA83F349098A
:102020005B09B2F5006F41EA030124D139B1216B9C
:102030000988C160B81C2063E08E0138E086E08E1C
:10204000002846D06E1C09E0216B31F8022BC260DB
:102050002163E08E0138E086E08ED0B3206881688D
:102060008907F1D4FFF7F4F8002EF5D0A0EB0800B3
:10207000A842F1D323E039B139780173206B0130E4
:102080002063E08E0138E086E08E10B36E1C0AE01B
:10209000216B09780173206B01302063E08E0138D9
:1020A000E086E08EA8B1206881688907F0D4FFF748
:1020B000CFF8002EF5D0A0EB0800A842F1D3012004
:1020C00084F85100002084F85000032002B0BDE8DD
:1020D000F08120462946424601F0C8F800281CBF7E
:1020E00020206065A06838B9002001902068C16890
:1020F0000191806801900198012084F8510000202E
:1021000084F85000606D002818BF012002B0BDE8BF
:10211000F08100007047000070470000B0B590F8F3
:102120003C20012A04BF0220B0BD01F108053CCDCE
:10213000D1E900CE23F47C5322F470521A432EF4DA
:10214000F0431A432CF4E0431A4324F4C0431A43E7
:102150002A43C96922F4804203681143596400216B
:1021600080F83C100846B0BD10B590F83C20012A1C
:102170004FF0020231D0012380F83C3080F83D203E
:102180000268D2F804E0D2F808C00C682EF07003A0
:10219000234340F2FF74C4F20004A242536005DC02
:1021A000B2F1804F0ED040F2004307E042F6004308
:1021B000C4F201039A4205D040F60003C4F20003C2
:1021C0009A4204D149682CF080031943916001219F
:1021D000002280F83D1080F83C20104610BD000021
:1021E000002804BF0120704710B5044690F83D0058
:1021F00028B9002084F83C00204600F01FF8022097
:1022000084F83D002068211D01F0C8FA012084F8FF
:10221000460084F83E0084F83F0084F8400084F8CB
:10222000410084F8420084F8430084F8440084F8B4
:10223000450084F83D00002010BD000082B0006819
:10224000B0F1804F14D042F60041C4F2010188423F
:102250001BD141F21800C4F20200016841F4006190
:102260000160006800F400600190019802B07047BE
:1022700041F21800C4F20200416841F001014160DE
:10228000406800F001000090009802B07047000024
:1022900090F83D1001291CBF01207047022180F8F1
:1022A0003D10006840F2FF71C4F20001884205DC75
:1022B000B0F1804F0ED040F2004107E042F60041FD
:1022C000C4F20101884205D040F60001C4F20001C9
:1022D000884206D1816801F00701062904BF002069
:1022E0007047016841F00101016000207047000063
:1022F00090F83D1001291CBF01207047022180F891
:102300003D10006840F2FF72C168C4F200029042C2
:1023100041F00101C16005DCB0F1804F0ED040F208
:10232000004107E042F60041C4F20101884205D0B5
:1023300040F60001C4F20001884206D1816801F034
:102340000701062904BF00207047016841F0010120
:10235000016000207047000010B5044690F83C0072
:1023600001284FF0020008BF10BD012284F83C2074
:1023700084F83D0020684FF6777382689A43826044
:102380000A684F2A0FDC1F2A22DD202A23D0302A98
:1023900021D0402A4DD14B68CA68194601F030FB64
:1023A000206840213BE06F2A17DDB2F5005F20D0A6
:1023B000B2F5805F2AD0702A3BD1D1E9012CCB68DD
:1023C000614601F04BFA2068816841F077011AE01C
:1023D0000AB1102A2DD1114621E0502A18D0602AC6
:1023E00027D14B68CA68194601F01CFB20686021A0
:1023F00015E0D1E9012CCB68614601F02FFA206885
:10240000816841F48041816000200BE0002009E0F8
:102410004B68CA68194601F0F3FA2068502101F0B0
:1024200029FA0020012184F83D10002184F83C1095
:1024300010BD0120F6E7000070470000B0B504466B
:102440000068C168026902EA0105A9071DD468078E
:1024500031D4280747D4E8065CD4E80773D12806AE
:102460007BD4680606D520686FF0400101612046E4
:1024700000F092F9A80658BFB0BD20686FF02001A7
:1024800001612046FFF748FEB0BD6FF00201016117
:10249000012121778069800703D02046FFF7CCFF18
:1024A00005E0204600F090F8204600F00BF90020EF
:1024B00020776807CDD520686FF004010161022103
:1024C0002177806910F4407F03D02046FFF7B4FFE6
:1024D00005E0204600F078F8204600F0F3F80020F0
:1024E00020772807B7D520686FF008010161042123
:1024F0002177C069800703D02046FFF79DFF05E0E4
:10250000204600F061F8204600F0DCF8002020773B
:10251000E806A2D520686FF010010161082121773B
:10252000C06910F4407F03D02046FFF785FF05E027
:10253000204600F049F8204600F0C4F8002020773B
:10254000E8073FF48CAF20686FF00101016120467D
:1025500000F016F928067FF584AF20686FF080013F
:1025600001612046FFF7D6FD68067FF583AF7AE765
:1025700080B586B0014640F60000C4F2010009684B
:1025800000F5105291424FF00001CDE90411CDE960
:10259000021101D006B080BD41F21801C4F202015F
:1025A0000A6842F004020A60096801F0040101911E
:1025B00001994FF48071029102210391059102A9C2
:1025C000FEF724FD06B080BD70470000B0B504469C
:1025D00090F83C00012804BF0220B0BD0D464FEA30
:1025E000B2010120032984F83C0037D8DFE801F06C
:1025F000020A12222068294601F044F9206850F8A6
:10260000181F0EE02068294601F06CF9206850F888
:10261000181F16E02068294601F098F9206850F844
:102620001C1F41F008010160016821F004010160F4
:1026300029690FE02068294601F0BCF9206850F8AC
:102640001C1F41F400610160016821F48061016098
:10265000296909020268114301600020002184F801
:102660003C10B0BD002804BF0120704710B50446DF
:1026700090F83D0028B9002084F83C00204600F086
:102680001FF8022084F83D002068211D01F086F823
:10269000012084F8460084F83E0084F83F0084F866
:1026A000400084F8410084F8420084F8430084F834
:1026B000440084F8450084F83D00002010BD00006F
:1026C0007047000070470000B0B5044641B10829CA
:1026D00009D0042914BF04F1410004F13F0004E0D3
:1026E00004F13E0001E004F14000007801281CBF25
:1026F0000120B0BD022041B1082909D0042914BF2E
:1027000084F8410084F83F0004E084F83E0001E0D2
:1027100084F84000206842F644450122C4F20105D5
:1027200001F08AF82068A5F14401884203D12968A4
:1027300041F40041296040F2FF71C4F20001884277
:1027400005DCB0F1804F0ED040F2004107E042F6C8
:102750000041C4F20101884205D040F60001C4F2F4
:102760000001884206D1816801F00701062904BFF3
:102770000020B0BD016841F0010101600020B0BD42
:1027800080B5006840F60001C4F20001884208BF2D
:10279000FEF7FCFE80BD000070470000002804BF6B
:1027A0000120704710B5044690F8410028B9002078
:1027B00084F84000204600F021F8242084F84100ED
:1027C0002068C16821F40051C160204601F03CF945
:1027D0002068016921F490410161416921F02A01D9
:1027E0004161C16841F40051C16000202021606452
:1027F00084F8411084F84210606310BD70B586B053
:10280000002640F600040596CDE90366C4F20104F3
:10281000006804F540518842029601D006B070BDB0
:1028200041F21800C4F20200016802AD41F4804197
:102830000160016801F4804101910199016841F052
:10284000040101600068294600F00400019001982D
:102850004FF4007002900220039003200590204660
:10286000FEF7D4FB4FF48060CDE9020620462946EE
:102870000496FEF7CBFB06B070BD00002DE9F041D9
:1028800000F064F8FEF7E4FC40F27C0540F27806C4
:102890000446C2F20005C2F2000600BF2868318873
:1028A000FEF7C2FC40B9FEF7D3FC001B3228F5D975
:1028B0004FF6FF70BDE8F08140F2BC18C2F200088C
:1028C000D8F80000476A00BF28683188FEF7ACFCE2
:1028D000012808D1FEF7BCFC001B3228F4D94FF6C2
:1028E000FF70BDE8F081D8F8000044F26821406A2A
:1028F000C01B80B248434DF68361C4F21B31A0FB7C
:102900000101880CBDE8F081F0B581B0074640F2C6
:10291000BC10C2F200001C4615460E46FFF7B8FC7C
:1029200040F28400C2F20000076040F28000C2F270
:102930000000068040F27C00C2F20000056040F218
:102940007800C2F20000048001B0F0BDB0B540F2E2
:10295000840440F28005C2F20004C2F2000520683F
:1029600029880122FEF76EFC1420FDF72BFF20685A
:1029700029880022FEF766FCB0BD0000FEE70000DB
:102980000268516949054FF000010FD56FF480636B
:1029900053612022016380F83D2080F83E10026CD4
:1029A00042F00402026480F83C100121084670479E
:1029B0002DE9F04182B00446C06A1D46164610F566
:1029C000803F0F4618BF012823D12068016841F4D9
:1029D0008071016020464FF00111002233460095BE
:1029E00000F074F850B120680068C00544BF4FF48F
:1029F00000702064032002B0BDE8F081206940F23D
:102A00000208B0F5804FC0F2010808D107F0FE00BF
:102A100018E00828D9D0206B1228D6D0DAE7062093
:102A200000EAD7102168F030086108F1060120465D
:102A300032462B4600F09AF818B1012002B0BDE8EA
:102A4000F081F8B2216832460861204641462B46A3
:102A500000F08CF8002818BF012002B0BDE8F0811A
:102A6000F0B581B004460068406940071AD41546A5
:102A70000E464F1C08E000BF20684069400714D58F
:102A80002068406940070DD42046FFF779FFC8B998
:102A9000002FF5D0FEF7DCFB002EEDD0401BB0423E
:102AA000EED9E9E7002001B0F0BD0020202120632D
:102AB00084F83D1084F83E00216C41F0200121642F
:102AC00084F83C00012001B0F0BD00002DE9F04782
:102AD000DDF8208099461646044601F47F078DB242
:102AE00003F1010A11E000BF20681821B7F5803F0B
:102AF00008BF142140582A4608BF2A461040801AB1
:102B0000B0FA80F04009B04220D020681821B7F513
:102B1000803F08BF142140582A4608BF2A4610406B
:102B2000801AB0FA80F04009B0420CD1BAF1000F1F
:102B3000EBD0FEF78DFBB9F1000FD5D0A0EB08006C
:102B40004845E2D9D0E70020BDE8F08700202021E9
:102B5000206384F83D1084F83E00216C41F0200190
:102B6000216484F83C000120BDE8F0872DE9F043A2
:102B700081B098469146044601F47F078DB2561CF9
:102B80000DE000BF20681821B7F5803F08BF142171
:102B900040582A4608BF2A461040904228D1206853
:102BA0001821B7F5803F08BF142141582A4608BFB5
:102BB0002A46114091420ED0416949050FD4002E9A
:102BC000EDD0FEF745FBB9F1000FDBD0A0EB08001C
:102BD0004845E4D9D6E7002001B0BDE8F08301689C
:102BE00041F4007101606FF480614161042000E0F4
:102BF000202000212022216384F83D2084F83E100B
:102C0000226C1043206484F83C10012001B0BDE820
:102C1000F0830000F0B581B004460068406900060A
:102C20001AD415460E464F1C08E000BF20684069C4
:102C3000000614D52068406900060DD42046FFF731
:102C40009FFEC8B9002FF5D0FEF702FB002EEDD095
:102C5000401BB042EED9E9E7002001B0F0BD0020F2
:102C60002021206384F83D1084F83E00216C41F05F
:102C70002001216484F83C00012001B0F0BD000077
:102C800080B53220FDF792FD302000F03DF80520A0
:102C9000FDF78CFD302000F037F80520FDF786FDAC
:102CA000302000F031F80120FDF780FD202000F0F9
:102CB0002BF8282000F028F80C2000F025F801203F
:102CC00000F022F80520FDF771FD062000F01CF849
:102CD00080BD000080B56FF03F02002808BF6FF094
:102CE0007F025018C0B200F00FF880BD10B5017817
:102CF000002908BF10BD441EC8B200F02BF8A1780F
:102D000001340029F8D110BD80B582B000F0F00187
:102D1000000101F10C0208318DF8051000F10C01E1
:102D200008308DF8070040F2C8008DF804208DF8B7
:102D300006104FF0640CC2F2000001AA4E210423D9
:102D4000CDF800C0FEF752FB0220FDF72FFD02B0C8
:102D500080BD000080B582B000F0F001000101F1FB
:102D60000D0209318DF8051000F10D0109308DF8C3
:102D7000070040F2C8008DF804208DF806104FF0CF
:102D8000640CC2F2000001AA4E210423CDF800C059
:102D9000FEF72CFB0220FDF709FD02B080BD00000C
:102DA00040F29421C2F200010860704710B540F271
:102DB0009424C2F200042068FEF79EF820680A21DD
:102DC000FDF7D4FF2068FDF70BFF21680446084695
:102DD000FEF702F9A0B210BDB0B584B040F2980081
:102DE00042F200410024C2F20000C4F201014FF49B
:102DF000602201250394CDE9014404730475C26186
:102E0000C0E9001484600561FDF7EEFE70B905208D
:102E1000CDE90145039040F29800C2F2000001A9FB
:102E2000FDF758FE002804BF04B0B0BDFDF74CFE0E
:102E30002DE9F04F85B0002441F21800CDE903449C
:102E4000CDE90144C4F20200016840F6000841F0F7
:102E5000100101600168C4F2010801F01001009145
:102E60000099016808F5006641F0200101600168E1
:102E7000002201F020010091009901684FF40057F1
:102E800041F004010160016801F004010091009922
:102E9000016841F00801016000684FF4005100F042
:102EA0000800009000983046FEF7CCF94046022119
:102EB00000224FF00209FEF7C5F908F580652846A3
:102EC00040F61941002240F6194AFEF7BBF9019776
:102ED00001AF4FF0010B30463946CDE902B4CDF8D1
:102EE0001090FEF793F840463946CDE9019BCDE9B5
:102EF0000349FEF78BF80C20CDE901044046394622
:102F00000394FEF783F828463946CDE901ABCDE9B5
:102F10000349FEF77BF805B0BDE8F08F80B540F2BD
:102F2000C80045F20041C2F20000C4F2000148F2BC
:102F3000A06200234FF4804CC0F2010280E80E0032
:102F4000C0E9033CC0E90533C0E90733FEF786F961
:102F5000002808BF80BDFDF7B7FD000080B540F236
:102F60001C1043F20001C2F20000C4F201014FF450
:102F70008272002380E80E0000F114014FF4007CFF
:102F80004FF0080EC0E9033381E808500A21C0E978
:102F90000833C0E90A31FEF76BFF002808BF80BD87
:102FA000FDF792FD10B596B040F2741042F6004263
:102FB0000021C2F20000C4F2010247234FF6FF7461
:102FC0001591CDE91311CDE91111CDE90F11CDE91D
:102FD0000D11CDE90B11CDE90911CDE90711CDE9AD
:102FE0000511CDE90311CDE90111C0E90023C0E9C4
:102FF0000214C0E904118161FFF7F2F8002847D1FB
:103000004FF48050129040F27410C2F2000012A9E6
:10301000FFF7A2F9E0BB40F27410C2F20000FFF724
:1030200021FBA8BB40F274100024C2F2000010A9DA
:10303000CDE91044FFF798F850BB6020CDE90904B2
:1030400040F27410C2F2000009A90022CDE90B443D
:10305000CDE90D440F94FFF7B9FAC8B900200590E7
:10306000CDE90300CDE901004FF40051089040F292
:1030700074100691C2F2000001A9FFF74FF838B9A9
:1030800040F27410C2F20000FFF772FA16B010BDE1
:10309000FDF71AFD80B586B040F2BC100021C2F2E7
:1030A00000004FF0804247234FF6FF7CCDE904112A
:1030B000CDE90211CDE90011C0E90023C0E9021CED
:1030C00001618161FFF78CF8C0B94FF48050029024
:1030D00040F2BC10C2F2000002A9FFF73DF968B946
:1030E0000020CDE9000040F2BC10C2F200006946A9
:1030F000FFF73AF8002804BF06B080BDFDF7E4FCF6
:1031000080B540F24C2043F60001C2F20000C4F248
:10311000010100234FF00C0C4FF4E13280E80E0067
:10312000C0E90333C0E905C3C361FFF737FB0028DB
:1031300008BF80BDFDF7C8FCFEE70000FEE7000009
:1031400000F0070080F00703042B28BF04234FF092
:10315000FF3C03380CFA03F338BF00209943814049
:103160000CFA00F022EA000008437047000000005B
:10317000EFF30980BFF36F8F0D4B1A6820E9F00F52
:1031800010602DE908404FF0100080F3118801F025
:103190003FFA4FF0000080F31188BDE8084019683D
:1031A0000868B0E8F00F80F30988BFF36F8F7047AD
:1031B0009802002082B040F2741040F60044C2F23F
:1031C00000000021C4F2010400F038F940F20C368E
:1031D000C2F200066D4600BF306829464FF0FF324C
:1031E000002301F089FA0028F6D0BDF804000A286F
:1031F0004FF0000038BF5A2000F02EF99DF8000073
:103200000022232820464FF0100188BF0122FEF73C
:1032100019F8BDF80400BDF8021009284FF00000AD
:1032200088BF0120B1F5486F4FF0000198BF012120
:1032300040EA010220460821FEF704F8CCE700002E
:1032400081B040F20000C2F20000006844F6D351A1
:10325000C1F26201A0FB0101480A009000BF009882
:10326000411E00280091F9D101B0704770B582B0BD
:103270000D461646022101222B460446009600F018
:1032800013F840B92046802100222B4600960025E5
:1032900000F00AF820B1606D032540F02000606561
:1032A000284602B070BD00002DE9F04782B00A9CAC
:1032B000984615460E468146FDF7CAFF201A00EBD8
:1032C0000804FDF7C5FF40F20001C2F200010968E1
:1032D000C1F3CB3161430191D9F8001089683140C5
:1032E000891BB1FA81F14909A94203D1002002B03A
:1032F000BDE8F087824608F1010709E0D9F800002F
:1033000080683040801BB0FA80F04009A842EDD0C0
:10331000002FF3D0FDF79CFFA0EB0A00A04207D2DC
:1033200001980199002808BF0446481E0190E5E76E
:10333000D9E900014268B1F5827F22F0E0024260E3
:103340000BD1D9F80810B1F5004F02D0B1F5806F5C
:1033500003D1016821F040010160D9F82810B1F5CE
:10336000005F07D1016821F400510160016841F458
:1033700000510160012089F85100002089F85000B7
:10338000032002B0BDE8F08700000000000000004C
:10339000074B19680868B0E8F00F80F30988BFF39D
:1033A0006F8F4FF0000080F311884EF00D0E7047C4
:1033B0009802002082B040F60004C4F201042046C6
:1033C0000821FDF725FA40F29800C2F20000FFF74D
:1033D000E7FC2046022122460423FFF795FA40F23B
:1033E000900440F20C3640F29407C2F20004C2F29C
:1033F00000066D46C2F200072046FDF715FA0028C8
:103400001CBF2088ADF80000FFF7D0FCADF802002B
:10341000FFF734FA3168ADF8040008462946002267
:10342000022301F05FFA386829460022022301F0E6
:1034300059FA40F6B83001F01FF8DDE780B540F2E8
:103440001432C2F20002106040F21032C2F20002E6
:103450001160FFF739F980BDB42828BF6FF04B0029
:10346000C0B24FF4FA61484346F617418008C1F2F2
:10347000C161A0FB010240F21030C2F200000168FD
:103480004FF4FA70042900EB920009D089B940F298
:103490001431C2F20001096880B2096848637047BC
:1034A00040F21431C2F20001096880B209688863F1
:1034B000704740F21432C2F2000212680829126802
:1034C00080B214BF1064D0637047000080B54FF025
:1034D000100080F31188BFF36F8FBFF34F8F01F09F
:1034E000F9FA30B14EF60450CEF200004FF08051A0
:1034F0000160002080F3118880BD000070B594B099
:103500000AAC20462821FCF7C6FF002501204FF415
:1035100080310A90CDE90B150E9002264FF4E01091
:10352000CDE91161139020460995CDE90755CDE904
:103530000555CDE90355CDE90155FEF70FFBC0B99F
:103540000F20CDE905064FF480600795CDE9080509
:1035500005A80221FEF7CEF958B9022001904FF4D8
:103560004040039001A8FEF73DF9002804BF14B0C5
:1035700070BDFDF7A9FA000070470000B0B51C4609
:103580001318802B1FD815460A462144A0291AD8A3
:10359000013BA1F1010CD9B25FFA8CF300F084F881
:1035A0002C2000F0A7F86C43002C08BFB0BD049895
:1035B000851E00BFE87800F0C3F815F8020F00F090
:1035C000BFF8013CF6D1B0BD70B5054600207F21A3
:1035D00000229F2300F068F82C2000F08BF82C0AC2
:1035E0004FF4A046EDB200BF204600F0A9F82846EF
:1035F00000F0A6F8013EF7D170BD000010B540F60E
:103600000044C4F2010420464FF400610022FDF79B
:1036100019FE1420FDF7CAF820464FF4006101227C
:10362000FDF710FEC820FDF7C1F8012000F062F898
:103630006420FDF7BBF8112000F05CF87820FDF75E
:10364000B5F800F013F8362000F054F8002000F030
:1036500077F83A2000F04EF8052000F071F82920A4
:1036600000F048F86420FDF7A1F810BDB0B54BF2AA
:103670003E14C0F60004B120032504E020786578EC
:10368000FF2808BFB0BDC0B2023400F033F82806EE
:10369000F4D0681EC0B2451C14F8010B00F050F8BD
:1036A000013DF9D1EAE70000F0B581B007462A20D4
:1036B0001C4615460E4600F01DF8002000F040F8AC
:1036C000384600F03DF8002000F03AF8304600F0AF
:1036D00037F82B2000F00EF8002000F031F82846D3
:1036E00000F02EF8002000F02BF8204600F028F81B
:1036F00001B0F0BD10B582B040F60044C4F2010440
:103700008DF80700204601210022FDF79BFD204691
:103710004FF480610022FDF795FD40F21C10C2F2CB
:1037200000000DF1070101224FF4FA73FEF72CFCA3
:10373000204601210122FDF785FD02B010BD0000E9
:1037400010B582B040F60044C4F201048DF80700C1
:10375000204601210022FDF775FD20464FF48061CF
:103760000122FDF76FFD40F21C10C2F200000DF1C6
:10377000070101224FF4FA73FEF706FC20460121EF
:103780000122FDF75FFD02B010BD000080B540F2E0
:103790000420C2F20000FEF751FE80BD10B540F2D9
:1037A000FF7E0368C4F2000E42F6004C7045C4F27E
:1037B000010C05DCB0F1804F0AD040F2004203E07A
:1037C000604505D040F60002C4F20002904203D1E9
:1037D0004A6823F070031343704505DCB0F1804F55
:1037E0000AD040F2004203E0604505D040F60002F6
:1037F000C4F20002904203D1CA6823F44073134319
:1038000023F080024B69D1F800E08C681A436045D0
:103810000260C462C0F828E002D10969CCF8301017
:10382000012141610169C90708BF10BD016921F08B
:103830000101016110BD000080B501F01F014FF0D2
:10384000010CD0F820E00CFA01F32EEA0303036226
:10385000036A02FA01F11943016280BDD0F808C081
:1038600011432CF47F4C41EA032141EA0C018160B1
:1038700070470000826822F07002114341F0070196
:103880008160704770B5026A036A42F6004E23F009
:1038900001030362456883690C688E6823F0730333
:1038A00022F00202C4F2010E43EA040C704542EA1F
:1038B000060208D070450ED04560C0F818C04968AF
:1038C0004163026270BDCB6822F00C0223F0040356
:1038D0001A437045F0D125F44073D1E905653343AF
:1038E0001D43E9E770B5026A036A42F6004E23F011
:1038F00010030362456883690C688E6823F4E6430D
:1039000022F02002C4F2010E43EA042C704542EA80
:10391000061208D0704510D04560C0F818C049683C
:103920008163026270BDCB686FF0400422F0C00278
:1039300004EA03131A437045EED125F44063D1E93C
:10394000056543EA860343EA8505E5E770B5026A43
:10395000036A42F6004E23F4807303624568C3692C
:103960000C688E6823F0730322F40072C4F2010E17
:1039700043EA040C704542EA062208D0704510D094
:103980004560C0F81CC04968C163026270BDCB6865
:1039900040F2FF441B0222F44062A3431A437045E5
:1039A000EED125F44053D1E9056543EA061343EA15
:1039B0000515E5E7B0B5D0F820E0026A22F48052A0
:1039C00002624468C3690A6823F4E6438D6843EAE7
:1039D000022C42F600432EF40052C4F20103984236
:1039E00042EA053304D14A6924F4804545EA821449
:1039F0004460C0F81CC0496801640362B0BD0000A7
:103A0000D0F820C0036A23F001030362836923F026
:103A1000F00343EA02122CF00A03194382610162A7
:103A200070470000D0F820C0036A23F0100303623F
:103A3000836923F4704343EA02322CF0A00343EA83
:103A4000011182610162704710B504460068D4E933
:103A500002C22369016921F4405111430161616986
:103A600043EA0C021143C26841F20C639A431143CA
:103A7000C1604169A26921F44071114343F600021B
:103A8000C4F201029042416102D0FEF713F801E056
:103A9000FEF722F86268192148439100B0FBF1F06B
:103AA00048F21F51C5F2EB11A0FB01235A096FF038
:103AB000630302FB0300322303EB0010A0FB0101B0
:103AC000F02303EA5113206803EB0212C1F3431100
:103AD0001144816010BD0000FEE70000002848BFCF
:103AE000704700F01F01012202FA01F14EF20012AC
:103AF0004009CEF2000242F8201070474EF60C50FA
:103B0000CEF200000068C0F3022070474EF6145356
:103B100000F00F02CEF2000309011A4400F16043E5
:103B2000B0F1FF3FC8BF03F5644211707047000059
:103B30004EF60C51CEF200010A684FF6FF031A4010
:103B400060F30A2242F0806040F0FD700860704728
:103B500082B0FDF729FDFFF7D1FC012000F0A6FDA2
:103B600040F21834C2F200042060FFF761F9FFF759
:103B700033F9FFF7C5FAFFF78DFAFFF7CFF9FFF733
:103B8000EDF9FFF70FFAFCF709FE216840F24C202F
:103B9000C2F20000FCF72AFF0520062100220024C3
:103BA00000F090FD40F20C31C2F2000108600520E7
:103BB0000621002200F086FD40F29401C2F20001CD
:103BC000086040F2DD700225C0F6000017A18022D7
:103BD00000230095019400F04DFF43F2B530C0F68C
:103BE000000015A14FF4807200230095019400F0AD
:103BF00041FF43F2B510C0F6000011A14FF48072EE
:103C000000230095019400F035FF40F60520C0F632
:103C100000000DA14FF4007200230095019400F004
:103C200029FF00F0B7FC00BFFEE700BF426C696EE1
:103C30006B4C45440000000053656E736F720000CA
:103C400050726F6365737300446973706C617900BF
:103C5000F0B581B00D4643F6C03140F29826C2F26D
:103C60000001C2F200060F6831680446081D00F02A
:103C70005DFB10B1601C0FD019E0306843F63432A0
:103C8000C06AC2F200020121136801FA00F023EABF
:103C900000001060601C0AD14DB13068011D43F670
:103CA0009830C2F2000000F083FB01B0F0BD306834
:103CB000E41944600AD340F2A420C2F20000006874
:103CC0003168043100F056FB01B0F0BD40F29C2099
:103CD000C2F2000000683168043100F04BFB43F68B
:103CE0007030C2F2000001688C4238BF046001B03D
:103CF000F0BD000070B5044600F068FB43F62030CC
:103D0000C2F20000016840F2982501310160C2F260
:103D10000005296843F68C36C2F2000641B13068CE
:103D200060B92868E16AC06A884298BF2C6005E0E3
:103D30002C600068012801D100F078F943F630309A
:103D4000C2F20000016843F634320131016061645F
:103D5000E06AC2F200020121136881401943116038
:103D600040F2A82100EB8000C2F2000101EB8000CC
:103D7000211D00F01DFB00F039FB306880B1286880
:103D8000E16AC06A884228BF70BD4EF60450CEF288
:103D900000004FF080510160BFF34F8FBFF36F8F72
:103DA00070BD0000F0B581B043F62435C2F20005C5
:103DB000286828B343F6AC3643F62037C2F2000633
:103DC000C2F2000702E000BF2868C8B100F018FC8A
:103DD000346800F0A3FF002CF6D000F0F7FAF0688A
:103DE000C468201D00F0A2FA3868013838602868DD
:103DF0000138286000F0FAFA204600F055F8E3E7B1
:103E000001B0F0BD80B5026C002A08BF80BDC36858
:103E1000D0F804C01344C360634524BF0368C36083
:103E2000C36808461946FCF7E9FA80BD70B5866B91
:103E3000036C0446E3B115461AB3E0681A46FCF772
:103E4000DDFAE168206C2268091A9142E16003D230
:103E5000616840420844E060A81EB0FA80F0400962
:103E60003146002E18BF01210840361A002516E001
:103E70002068002598B9606800F0D2FE65600546AC
:103E80000DE0A0681A46FCF7B9FA216CD4E90120CC
:103E900000250844A060904224BF2068A060711CE7
:103EA0002846A16370BD000010B50446006B00F009
:103EB000ABFA204600F0A8FA10BD000040F21C301A
:103EC000C2F20000C21D22F0070210F0070CA0EBA6
:103ED000020318BF104643F69032C2F200020021DE
:103EE000C2E900014FF46052BCF1000F18BF03F5A6
:103EF00060520244083A40F2A02322F00702C2F2C4
:103F000000031A60C2E90011111A1A68C0E9002101
:103F100043F66C30C2F20000016043F66430C2F236
:103F20000000016043F63830C2F200000121017048
:103F30007047000040F2A8244EF60455C2F2000477
:103F4000CEF200054FF08056FFF72CFF20680228C4
:103F5000FAD32E60BFF34F8FBFF36F8FF4E70000EB
:103F6000002808BF704780B50021C0E90011C1607A
:103F700000210022002300F0B5FCBDE8804070471E
:103F8000B0B5049D002914BF2A602D60C5E90F015A
:103F9000284601211C4600F06FFC85F84C40B0BD5E
:103FA0002DE9F0470A9C8246206B16460F46DDE954
:103FB00008599100A5229846FCF765FA206B00EBA2
:103FC0008600043820F00706002000BF395C221864
:103FD00082F83410395C19B10F2800F10100F5D3D3
:103FE0000027201D84F84370042D28BF0425E562B6
:103FF000C4E9135700F0BAF904F1180000F0B6F95B
:10400000C5F10500A0613046514642462461646214
:10401000676584F8587000F079F9B9F1000F2060F5
:1040200018BFC9F80040BDE8F0870000B0B540F205
:10403000A8250024C2F20005281900F08BF91434D9
:10404000642CF9D143F63C34C2F20004204600F05F
:1040500081F943F65035C2F20005284600F07AF99E
:1040600043F67830C2F2000000F074F943F6AC3049
:10407000C2F2000000F06EF943F69830C2F2000080
:1040800000F068F940F29C20C2F20000046040F2A7
:10409000A420C2F200000560B0BD000080B543F668
:1040A0009032C2F2000200BF114612688242FBD376
:1040B000D1F804C001EB0C03834203D14068604493
:1040C00048600846D0F804E000EB0E03934201D0AC
:1040D000026010E040F2A023C2F20003D3F800C057
:1040E000624506D00B6852681B687244C0E9003212
:1040F00001E0C0F800C0814218BF086080BD000028
:1041000010B5044600F062F9A06BB0FA80F04409E3
:1041100000F06CF9204610BD10B5044600F056F9C9
:10412000A06BE16B401AB0FA80F0440900F05EF930
:10413000204610BD06480068006880F3088862B613
:1041400061B6BFF34F8FBFF36F8F00DF00BF00BFBB
:1041500008ED00E040F29C20C2F20000016809680E
:1041600021B10068C068C068406801E04FF0FF30CE
:1041700043F67031C2F20001086070474FF0100042
:1041800080F31188BFF36F8FBFF34F8FFEE70000FE
:10419000F0B581B0044600F019F994F94560012E9C
:1041A0000FDB04F1240500BF286850B1284600F059
:1041B00077FD002818BF00F079F970B2013E0128A0
:1041C000F2DCFF2684F8456000F010F900F0FEF8FC
:1041D00094F94470012F0EDB04F11005286850B1EA
:1041E000284600F05DFD002818BF00F05FF978B2A6
:1041F000013F0128F2DC84F8446000F0F7F801B0D8
:10420000F0BD00002DE9F047044600F0F9F940F256
:10421000A02AC2F2000ADAF80000002808BFFFF75F
:104220004DFE43F63830C2F200000578002D18BF6D
:104230004FF00045254201D0002455E044B104F17F
:10424000080010F007011ABF601A00F110040446BC
:1042500043F66438C2F20008D8F80090601E484562
:1042600017D243F69030C2F200000668374657F87E
:10427000041FA14213D2306868B100BF30463668CF
:10428000374657F8041FA14209D23268002AF5D1F7
:1042900005E0002428E043F69030C2F20000DAF88E
:1042A000002096421FD0D0F800A03268091B1129C7
:1042B000026004D3301941603C60FFF7EFFE43F623
:1042C0006C313868C2F200010B68A9EB0002284388
:1042D0000AF108049A42C8F8002038BF0A60386022
:1042E0000020306000E0002400F018FD2046BDE80A
:1042F000F087000040F29820C2F20000016819B176
:1043000001680A6D01320A6500687047034644F28D
:104310007D10C0F600004FF0807C21F0010103E920
:104320000310A3F1400043F8202C7047D0E901238B
:10433000016993604B68D0F808C08342CCF8042030
:1043400001D182684A600B6800220261581E086031
:10435000704700004FF0FF31024642F8081F00216D
:10436000C0E90322C0E9001270470000002101618A
:104370007047000080B5D1F800C01CF1010207D0E1
:1043800000F108039E465B681A686245FAD901E0AD
:10439000D0F810E0DEF8042008614A6091600268FD
:1043A000C1F808E0CEF80410511C016080BD000087
:1043B0004268D0F800C093684A608B60936891604F
:1043C000596008610CF10101016070474FF0100065
:1043D00080F31188BFF36F8FBFF34F8F40F20C0053
:1043E000C2F20000016801310160704740F20C0028
:1043F000C2F2000001680139016018BF7047002057
:1044000080F3118870470000B0B538B3044643F616
:104410003830C2F20000007854F8041C002818BF9D
:104420004FF00040084219D0A4F108052A68002A7C
:1044300018BFB0BD21EA000044F8040C00F0E0F819
:1044400043F66431C2F2000154F8040C0A681044C7
:1044500008602846FFF722FE00F060FCB0BD0000B7
:104460004EF2100041F63F11CEF20000C0F2010101
:10447000416007210160704710B558B1044600F053
:10448000BFF820460021FFF7E3FB00F047FC0028BF
:1044900018BF10BD4EF60450CEF200004FF0805110
:1044A0000160BFF34F8FBFF36F8F10BD43F6C43071
:1044B000C2F20000012101607047000010B50C46F7
:1044C00040F29821C2F2000109681831FFF752FF4B
:1044D00020460121FFF7BCFB10BD0000F0B581B004
:1044E000F8B140F29826C2F200060446C06A31686C
:1044F000C96A884215D2A169002904D43168C96A01
:10450000C1F10501A16140F2A827616900EB8000BB
:10451000C2F2000707EB8000814204D03068C06A15
:10452000E06201B0F0BD251D2846FFF7FFFE002820
:1045300043F63430C2F200000CD1E16A01EB810293
:1045400057F8222032B90122036802FA01F123EA66
:104550000101016031680122C96AE16203688A4091
:104560001A43026001EB810007EB80002946FFF748
:104570001FFF01B0F0BD000043F67431C2F200012C
:104580000968016043F6C031C2F200010968416068
:104590007047000010B582B043F66830C2F20000E8
:1045A000019043F635700024C0F6000012A1782275
:1045B0000023009400F05EFA01281BD14FF0100098
:1045C00080F31188BFF36F8FBFF34F8F43F67030C6
:1045D000C2F200004FF0FF31016043F68C30C2F2AE
:1045E00000000121016043F6C030C2F20000046007
:1045F00000F044F802B010BD49444C4500000000F2
:1046000043F62C30C2F200000168013101607047AE
:1046100043F62C30C2F20000006830B143F6C430DB
:10462000C2F2000001210160704743F6C430C2F2BB
:1046300000000021016043F63430C2F2000000683F
:10464000B0FA80F0C0B2C0F11F0040F2A82100EB28
:104650008000C2F2000101EB800050F8041F49689D
:10466000021D9142016001D149680160006840F279
:104670009821C068C2F20001086070474EF62050D1
:10468000CEF20000016841F470010160016841F060
:1046900070410160FFF7E4FE40F20C00C2F200003E
:1046A00000210160FFF746FDFFF768FD10B50246E7
:1046B0000120002100F006F80446FFF751FC2046D7
:1046C00010BD0000F0B581B0064648435030144696
:1046D0000D46002908BF5020FFF794FD074638B16A
:1046E00007F150023046294623460097FFF748FC61
:1046F000384601B0F0BD00002DE9F04F85B0064608
:1047000000F1240910301C460D4601900DF1080BF4
:104710000DF1100A0020049200900AE03046FFF7E5
:1047200037FD00F0FBFA3046FFF7EAFC002840F0C6
:104730009E80FFF74BFED6F83880B8F1000F19D0F5
:10474000F76830462946FFF75DFB0CB3706AF760E7
:10475000C0B3484600F0A4FAA0B34EF60450CEF21F
:1047600000004FF080510160BFF34F8FBFF36F8F98
:1047700028E000BF049800286CD0009820B9584663
:10478000FFF7FAFE01200090012008BB70E000BF97
:10479000A8F10100B063306810B9FFF7ABFD70609D
:1047A0000198006870B1019800F07AFA50B14EF6A5
:1047B0000450CEF200004FF080510160BFF34F8FE4
:1047C000BFF36F8FFFF712FE0020012700284FD0A4
:1047D000FFF70CFEFFF714FFFFF7F8FD96F8440013
:1047E000FF2804BF002086F8440096F84500FF2803
:1047F00004BF002086F84500FFF7F8FD58465146F3
:1048000000F00CF900287FF489AF3046FFF778FC00
:1048100038B3306830B9FFF7D9FD7068FFF75EFE36
:10482000FFF7E4FD04994846FFF748FE3046FFF7DE
:10483000AFFC00F073FA00287FF47BAF4EF6045013
:10484000CEF200004FF080510160BFF34F8FBFF3F5
:104850006F8F6EE7FFF7CAFD002700200028B7D151
:1048600006E03046FFF794FC00F058FA61E70027B5
:10487000384605B0BDE8F08F70B50E460446FFF728
:10488000A5FD2068D4E90F12002502FB01030139C0
:1048900001FB0201A563C4E90130FF20E16084F857
:1048A000440084F8450004F1100036B1FFF752FDD2
:1048B00004F12400FFF74EFD0FE0016869B100F03C
:1048C000EFF950B14EF60450CEF200004FF0805197
:1048D0000160BFF34F8FBFF36F8FFFF787FD01209C
:1048E00070BD00002DE9F04F83B01D468846044698
:1048F0000292FFF76BFDA06B022D58D0E16B88424E
:1049000055D304F110074FF0000B6E460DF1080966
:104910004FF0000A0298002873D0BAF1000F04D1BA
:104920003046FFF729FE4FF0010AFFF75FFDFFF762
:1049300067FEFFF74BFD94F84400FF2808BF84F89A
:1049400044B094F84500FF2808BF84F845B0FFF74D
:104950004DFD3046494600F061F8002854D120460C
:10496000FFF7DAFBB0B102993846FFF7A7FD204602
:10497000FFF70EFC00F0D2F988B94EF60450CEF2E3
:1049800000004FF080510160BFF34F8FBFF36F8F76
:1049900005E000BF2046FFF7FBFB00F0BFF9FFF783
:1049A00015FDA06B022D02D0E16B8842B2D22046E9
:1049B00041462A46FFF73AFA54F8241F79B12046B7
:1049C00000F06EF9B8B14EF60450CEF200004FF090
:1049D00080510160BFF34F8FBFF36F8F0BE050B179
:1049E0004EF60450CEF200004FF080510160BFF34C
:1049F0004F8FBFF36F8FFFF7F9FC012003B0BDE8C5
:104A0000F08FFFF7F3FC04E02046FFF7C1FB00F056
:104A100085F9002003B0BDE8F08F0000B0B50D4669
:104A20000446FFF7D3FC43F6C030C2F20000016831
:104A30002868421C15D043F67432C2F20002126894
:104A400023689A4202D0626891420ED26268891A43
:104A5000884208D9401A28602046FFF78DFD0024BF
:104A600004E0002402E0012400E00124FFF7BEFC82
:104A70002046B0BD2DE9F04383B00746900098462C
:104A800015468946FFF7BEFB78B106465C20FFF766
:104A9000B9FB38B10446066354B94FF0FF3003B098
:104AA000BDE8F0833046FFF7AFFC0024002CF4D0C3
:104AB000DDE90A102A46CDE900103846494643464A
:104AC0000294FFF76DFA2046FFF714F9012003B0B6
:104AD000BDE8F0832DE9F04F81B043F62C30C2F2EF
:104AE0000000006840B143F62830C2F200000168BF
:104AF00000240131016087E043F6C030C2F20000BB
:104B000001684E1C066014D340F29C2040F2A4229F
:104B1000C2F20000C2F2000201681368036043F6AB
:104B200074301160C2F20000016801310160FFF7CA
:104B300011FB43F67031C2F20001086840F2982A76
:104B40008642C2F2000A01D200244FE040F29C2BC0
:104B5000C2F2000BDBF8000000240068E0B343F66B
:104B600034380127C2F2000820E000BFD9F82C0039
:104B7000D8F8001007FA00F21143C8F8001040F20C
:104B8000A82100EB8000C2F2000101EB8000294661
:104B9000FFF70EFCD9F82C00DAF80010C96ADBF830
:104BA00000208842106828BF3C46C0B1DBF80000F6
:104BB000C068D0F80C904D4655F8040F864210D3CB
:104BC0002846FFF7B3FBD9F828000028CED009F11A
:104BD0001800FFF7ABFBC9E74FF0FF3005E04FF0DF
:104BE000FF3043F67031C2F200010860DAF80000CD
:104BF00040F2A821C06AC2F2000100EB800051F827
:104C00002000012888BF012443F6C430C2F200000E
:104C10000068002818BF0124204601B0BDE8F08FCD
:104C200070B5C8B30446D4E91312C06A013A4FF014
:104C3000000622652ED188422CD0251D2846FFF77C
:104C400075FB002840F2A82043F63431C2F2000080
:104C5000C2F200010CD1E26A02EB820350F8233069
:104C600033B901230E6803FA02F226EA02020A604F
:104C7000E26C0126C2F10503E262A3610B6806FA49
:104C800002F423430B6002EB820100EB8100294612
:104C9000FFF78EFB304670BD0026304670BD000029
:104CA000B0B5C068C56805F118042046FFF73EFBA3
:104CB00043F62C30C2F20000006820B143F6783091
:104CC000C2F2000015E02C1D2046FFF72FFB43F633
:104CD0003432E86AC2F200020121136881401943AC
:104CE000116040F2A82100EB8000C2F2000101EB4C
:104CF00080002146FFF75CFB40F29821C2F20001E0
:104D0000E86A0968C96A884291BF002043F6C43145
:104D1000C2F20001012088BF0860B0BD2DE9F04F4C
:104D200081B0FFF753FB43F62C30C2F2000001685C
:104D300001390160006830B10024FFF757FB2046BD
:104D400001B0BDE8F08F43F62030C2F200000068E9
:104D500000285FD043F67836C2F20006306843F68A
:104D6000C438C2F2000898B343F6343540F2A8299B
:104D700040F2982A4FF0010BC2F20005C2F200097E
:104D8000C2F2000AF068C76807F11800FFF7CEFA10
:104D90003C1D2046FFF7CAFAF86A29680BFA00F2B0
:104DA000114300EB8000296009EB80002146FFF7EA
:104DB000FFFAF86ADAF80010C96A884228BFC8F812
:104DC00000B030680028DDD1002F18BFFFF7C2F90E
:104DD00043F62834C2F2000425685DB1012600BF05
:104DE000FFF778FE002818BFC8F80060013DF7D132
:104DF00000202060D8F8000070B14EF60450CEF2CA
:104E000000004FF0805101240160BFF34F8FBFF3CA
:104E10006F8F92E7002490E700248EE730380A284D
:104E200001D20120704700207047040000080000F4
:104E3000000000000002000100001000000000005F
:104E40000000000102030406070809000000000139
:104E50000203040000000000000000000000000049
:104E60000000000000000000000000000000000042
:104E70000000000000000000000000000000B0BCC6
:104E8000B3D5F0BC72CD52C552C552C572CD72CDEC
:104E900072CDB3D511BD72CD93CD93CD2258B0B4A0
:104EA000B0BCB0BC0000000000000000000000002A
:104EB00000000000000000000000000000000000F2
:104EC00000000000000000000000000000000000E2
:104ED00000000000000000000000000000000000D2
:104EE00000000000000000000000000000000000C2
:104EF00000000000000000000000000000000000B2
:104F000000000000000000000000000000000000A1
:104F10000000000000000000000000000000FFFF93
:104F200072CD72CD52C552C552C552C552C552C579
:104F300052C552CD72CD72CD92CDD4DD52C572CD57
:104F400093D593CDFFFF6FB4B0BC0000000000000C
:104F50000000000000000000000000000000000051
:104F60000000000000000000000000000000000041
:104F70000000000000000000000000000000000031
:104F80000000000000000000000000000000000021
:104F90000000000000000000000000000000000011
:104FA0000000000000000000000000000000000001
:104FB000000000000000000000000000000072CDB2
:104FC000F1BC72CD52C552C552C552C552C552C56B
:104FD00052C552C552C552C552C552CD72CD72CDC1
:104FE00093D5C96A72CD92CD93D532C5EEA3B0BC2C
:104FF000B0BC000000000000000000000000000045
:1050000000000000000000000000000000000000A0
:105010000000000000000000000000000000000090
:105020000000000000000000000000000000000080
:105030000000000000000000000000000000000070
:105040000000000000000000000000000000000060
:105050000000000000000000000000000000B3D5C8
:10506000FCFF72CD52C552C552C552C552C552C57C
:1050700052C552C552C552C552C552C552C552C578
:1050800052C552CD72CD92CDB3D531C572CD92CD30
:1050900093D5EEA3CA82B0BC00000000000000005F
:1050A0000000000000000000000000000000000000
:1050B00000000000000000000000000000000000F0
:1050C00000000000000000000000000000000000E0
:1050D00000000000000000000000000000000000D0
:1050E00000000000000000000000000000000000C0
:1050F0000000000000000000000000000000B3D528
:10510000FBFF72CD52C552C552C552C552C552C5DC
:1051100052C552C552C552C552C552C552C552C5D7
:1051200052C552C552C552C552C572CD72CD92CD2F
:1051300014E652C572CD92CD93CD08726FB4B0BC57
:10514000000000000000000000000000000000005F
:10515000000000000000000000000000000000004F
:10516000000000000000000000000000000000003F
:10517000000000000000000000000000000000002F
:10518000000000000000000000000000000000001F
:105190000000000000000000000000000000B3D587
:1051A000FBFF72CD52C552C552C552C552C552C53C
:1051B00052C552C552C552C552C552C552C552C537
:1051C00052C552C552C552C552C552C552C552C527
:1051D00052CD72CD72CD93CD6FA472CD92CD93CDC1
:1051E00052CDAD9BB0BCB0BC000000000000000080
:1051F00000000000000000000000000000000000AF
:10520000000000000000000000000000000000009E
:10521000000000000000000000000000000000008E
:10522000000000000000000000000000000000007E
:105230000000000000000000000000000000B3D5E6
:10524000FBFF72CD52C552C552C552C552C552C59B
:1052500052C552C552C552C552C552C552C552C596
:1052600052C552C552C552C552C552C552C552C586
:1052700052C552C552C552C572CD72CD92CDB3D56D
:1052800031C572CD93CD93CDC7698FB4B0BC00004A
:10529000000000000000000000000000000000000E
:1052A00000000000000000000000000000000000FE
:1052B00000000000000000000000000000000000EE
:1052C00000000000000000000000000000000000DE
:1052D0000000000000000000000000000000B3D546
:1052E000FBFF72CD52C552C552C552C552C552C5FB
:1052F00052C552C552C552C552C552C552C552C5F6
:1053000052C552C552C552C552C552C552C552C5E5
:1053100052C552C552C552C552C552C552C552C5D5
:1053200072CD72CD93CD35E652C592CD93D572CD67
:105330000000B0BCB0BC0000000000000000000095
:10534000000000000000000000000000000000005D
:10535000000000000000000000000000000000004D
:10536000000000000000000000000000000000003D
:105370000000000000000000000000000000B3D5A5
:10538000FBFF72CD52C552C552C552C552C552C55A
:1053900052C552C552C552C552C552C552C552C555
:1053A00052C552C552C552C552C552C552C552C545
:1053B00052C552C552C552C552C552C552C552C535
:1053C00052C552C552C552CD72CD92CDB3D5D0B4CF
:1053D00072CD92CD93D511C5A440B0BC00000000A1
:1053E00000000000000000000000000000000000BD
:1053F00000000000000000000000000000000000AD
:10540000000000000000000000000000000000009C
:105410000000000000000000000000000000B3D504
:10542000FBFF72CD52C552C552C552C552C552C5B9
:1054300052C552C552C552C552C552C552C552C5B4
:1054400052C552C552C552C552C552C552C552C5A4
:1054500052C552C552C552C552C552C552C552C594
:1054600052C552C552C552C552C552C552C572CD5C
:1054700072CD92CDD3DD52C572CD92CD93D5CA8A6D
:10548000B0B4B0BC0000000000000000000000004C
:10549000000000000000000000000000000000000C
:1054A00000000000000000000000000000000000FC
:1054B0000000000000000000000000000000B3D564
:1054C000FBFF72CD52C552C552C552C552C552C519
:1054D00052C552C552C552C552C552C552C552C514
:1054E00052C552C552C552C552C552C552C552C504
:1054F00052C552C552C552C552C552C552C552C5F4
:1055000052C552C552C552C552C552C552C552C5E3
:1055100052C552C552C572CD72CD92CD99FF72CD92
:1055200072CD93CD92D50128B0BCB0BC0000000074
:10553000000000000000000000000000000000006B
:10554000000000000000000000000000000000005B
:105550000000000000000000000000000000B3D5C3
:10556000FBFF72CD52C552C552C552C552C552C578
:1055700052C552C552C552C552C552C552C552C573
:1055800052C552C552C552C552C552C552C552C563
:1055900052C552C552C552C552C552C552C552C553
:1055A00052C552C552C552C552C552C552C552C543
:1055B00052C552C552C552C552C552C552CD72CD03
:1055C00072CD93D5F0BC72CD92CD93CD8DA38FB417
:1055D000B0BC0000B0BCB0BCB0BCB0BCB0BCB0BCD7
:1055E000B0BCB0BCB0BCB0BCB0BCB0BCB0BCB0BC5B
:1055F000B0BCB0BCB0BCB0BCB0BCB0BCB0BC93D54F
:10560000FBFF72CD52C552C552C552C552C552C5D7
:1056100052C552C552C552C552C552C552C552C5D2
:1056200052C552C552C552C552C552C552C552C5C2
:1056300052C552C552C552C552C552C552C552C5B2
:1056400052C552C552C552C552C552C552C552C5A2
:1056500052C552C552C552C552C552C552C552C592
:1056600052C552C572CD72CD92CDD3D552C572CD31
:1056700093D5B3D50A83CA7AA972A972A972A972FD
:10568000A972A972A972A972A972A972A972A97242
:10569000A972A972A972A972A972A972A972A97232
:1056A000412092CD52C552C552C552C552C552C5B0
:1056B00052C552C552C552C552C552C552C552C532
:1056C00052C552C552C552C552C552C552C552C522
:1056D00052C552C552C552C552C552C552C552C512
:1056E00052C552C552C552C552C552C552C552C502
:1056F00052C552C552C552C552C552C552C552C5F2
:1057000052C552C552C552C552C552C572CD72CD91
:10571000B3D572CD2B83EA7AEA7AEA7AEA7AEA7A20
:10572000EA7AEA7AEA7AEA7AEA7AEA7AEA7AEA7A59
:10573000EA7AEA7AEA7AEA7AEA7AEA7AEA7AEA7A49
:10574000EA7AD0BC52C552C552C552C552C552C5DF
:1057500052C552C552C552C552C552C552C552C591
:1057600052C552C552C552C552C552C552C552C581
:1057700052C552C552C552C552C552C552C552C571
:1057800052C552C552C552C552C552C552C552C561
:1057900052C552C552C552C552C552C552C552C551
:1057A00052C552C552C552C552C552C552C552C541
:1057B00052CD72CDEA7ACA7ACA7ACA7ACA7ACA7AD3
:1057C000CA7ACA7ACA7ACA7ACA7ACA7ACA7ACA7AB9
:1057D000CA7ACA7ACA7ACA7ACA7ACA7ACA7ACA7AA9
:1057E000CA7A4FAC52C552C552C552C552C552C5F0
:1057F00052C552C552C552C552C552C531C5EFC476
:105800006CC42AC409C42AC46BC4AEC410C531C553
:1058100052C552C552C552C552C552C552C552C5D0
:1058200052C552C552C552C552C552C552C552C5C0
:1058300052C552C552C552C552C552C552C552C5B0
:1058400052C552C552C552C552C552C552C552C5A0
:1058500052C552CDCA7ACA7ACA7ACA7ACA7ACA7A7A
:10586000CA7ACA7ACA7ACA7ACA7ACA7ACA7ACA7A18
:10587000CA7ACA7ACA7ACA7ACA7ACA7ACA7ACA7A08
:10588000CA7A4FAC52C552C552C552C552C552C54F
:1058900052C552C552C552C552C510C509C485C3AB
:1058A00086C3C7C3E8C3C7C3A6C385C386C3C8C36B
:1058B0002AC4ADC4EFC431C552C552C552C552C584
:1058C00052C552C552C552C552C552C552C552C520
:1058D00052C552C552C552C552C552C552C552C510
:1058E00052C552C552C552C552C552C552C552C500
:1058F00052C552C5CA7ACA7ACA7ACA7ACA7ACA7AE2
:10590000CA7ACA7ACA7ACA7ACA7ACA7ACA7ACA7A77
:10591000CA7ACA7ACA7ACA7ACA7ACA7ACA7ACA7A67
:10592000CA7A4FAC52C552C552C552C552C552C5AE
:1059300052C552C552C552C510C5C8C386C36CC432
:1059400010C531C531C531C510C5CFC46CC409C43B
:10595000A7C385C386C3C7C30AC48CC4EFC431C5FB
:1059600051C552C552C552C552C552C552C552C580
:1059700052C552C552C552C552C552C552C552C56F
:1059800052C552C552C552C552C552C552C552C55F
:1059900052C552C5CA7ACA7ACA7ACA7ACA7ACA7A41
:1059A000CA7ACA7ACA7ACA7ACA7ACA7ACA7ACA7AD7
:1059B000CA7ACA7ACA7ACA7ACA7ACA7ACA7ACA7AC7
:1059C000CA7A4FAC52C552C552C552C552C552C50E
:1059D00052C552C552C531C509C486C3CEC452C5CD
:1059E00052C552C552C552C552C552C552C552C5FF
:1059F00031C5EFC48DC42AC4C7C386C385C3A6C33B
:105A0000E9C36BC4CEC410C531C552C552C552C519
:105A100052C552C552C552C552C552C552C552C5CE
:105A200052C552C552C552C552C552C552C552C5BE
:105A300052C552C5CA7ACA7ACA7ACA7ACA7ACA7AA0
:105A4000CA7ACA7ACA7ACA7ACA7ACA7ACA7ACA7A36
:105A5000CA7ACA7ACA7ACA7ACA7ACA7ACA7ACA7A26
:105A6000CA7A4FAC52C552C552C552C552C552C56D
:105A700052C552C552C5CFC485C36CC452C552C5A8
:105A800052C552C552C552C552C552C552C552C55E
:105A900052C552C552C552C531C5F0C4ADC44BC480
:105AA000E8C386C385C3A6C3E8C34BC4CEC410C530
:105AB00051C552C552C552C552C552C552C552C52F
:105AC00052C552C552C552C552C552C552C552C51E
:105AD00052C552C5CA7ACA7ACA7ACA7ACA7ACA7A00
